{
  "contractName": "DistributedMusic",
  "abi": [
    {
      "inputs": [],
      "payable": false,
      "stateMutability": "nonpayable",
      "type": "constructor"
    },
    {
      "anonymous": false,
      "inputs": [
        {
          "indexed": false,
          "internalType": "uint256",
          "name": "id",
          "type": "uint256"
        },
        {
          "indexed": false,
          "internalType": "string",
          "name": "hash",
          "type": "string"
        },
        {
          "indexed": false,
          "internalType": "string",
          "name": "title",
          "type": "string"
        },
        {
          "indexed": false,
          "internalType": "address",
          "name": "author",
          "type": "address"
        }
      ],
      "name": "TrackUploaded",
      "type": "event"
    },
    {
      "constant": true,
      "inputs": [],
      "name": "name",
      "outputs": [
        {
          "internalType": "string",
          "name": "",
          "type": "string"
        }
      ],
      "payable": false,
      "stateMutability": "view",
      "type": "function"
    },
    {
      "constant": true,
      "inputs": [],
      "name": "trackCount",
      "outputs": [
        {
          "internalType": "uint256",
          "name": "",
          "type": "uint256"
        }
      ],
      "payable": false,
      "stateMutability": "view",
      "type": "function"
    },
    {
      "constant": true,
      "inputs": [
        {
          "internalType": "uint256",
          "name": "",
          "type": "uint256"
        }
      ],
      "name": "tracks",
      "outputs": [
        {
          "internalType": "uint256",
          "name": "id",
          "type": "uint256"
        },
        {
          "internalType": "string",
          "name": "hash",
          "type": "string"
        },
        {
          "internalType": "string",
          "name": "title",
          "type": "string"
        },
        {
          "internalType": "address",
          "name": "author",
          "type": "address"
        }
      ],
      "payable": false,
      "stateMutability": "view",
      "type": "function"
    },
    {
      "constant": false,
      "inputs": [
        {
          "internalType": "string",
          "name": "trackHash",
          "type": "string"
        },
        {
          "internalType": "string",
          "name": "title",
          "type": "string"
        }
      ],
      "name": "uploadTrack",
      "outputs": [],
      "payable": false,
      "stateMutability": "nonpayable",
      "type": "function"
    }
  ],
  "bytecode": "0x60806040526040518060400160405280601081526020017f44697374726962757465644d75736963000000000000000000000000000000008152506000908051906020019061004f929190610062565b5034801561005c57600080fd5b50610107565b828054600181600116156101000203166002900490600052602060002090601f016020900481019282601f106100a357805160ff19168380011785556100d1565b828001600101855582156100d1579182015b828111156100d05782518255916020019190600101906100b5565b5b5090506100de91906100e2565b5090565b61010491905b808211156101005760008160009055506001016100e8565b5090565b90565b61091e806101166000396000f3fe608060405234801561001057600080fd5b506004361061004c5760003560e01c806306fdde0314610051578063a2e34586146100d4578063ab35678c14610221578063acc9a5a21461023f575b600080fd5b610059610391565b6040518080602001828103825283818151815260200191508051906020019080838360005b8381101561009957808201518184015260208101905061007e565b50505050905090810190601f1680156100c65780820380516001836020036101000a031916815260200191505b509250505060405180910390f35b610100600480360360208110156100ea57600080fd5b810190808035906020019092919050505061042f565b6040518085815260200180602001806020018473ffffffffffffffffffffffffffffffffffffffff1673ffffffffffffffffffffffffffffffffffffffff168152602001838103835286818151815260200191508051906020019080838360005b8381101561017c578082015181840152602081019050610161565b50505050905090810190601f1680156101a95780820380516001836020036101000a031916815260200191505b50838103825285818151815260200191508051906020019080838360005b838110156101e25780820151818401526020810190506101c7565b50505050905090810190601f16801561020f5780820380516001836020036101000a031916815260200191505b50965050505050505060405180910390f35b6102296105af565b6040518082815260200191505060405180910390f35b61038f6004803603604081101561025557600080fd5b810190808035906020019064010000000081111561027257600080fd5b82018360208201111561028457600080fd5b803590602001918460018302840111640100000000831117156102a657600080fd5b91908080601f016020809104026020016040519081016040528093929190818152602001838380828437600081840152601f19601f8201169050808301925050505050505091929192908035906020019064010000000081111561030957600080fd5b82018360208201111561031b57600080fd5b8035906020019184600183028401116401000000008311171561033d57600080fd5b91908080601f016020809104026020016040519081016040528093929190818152602001838380828437600081840152601f19601f8201169050808301925050505050505091929192905050506105b5565b005b60008054600181600116156101000203166002900480601f0160208091040260200160405190810160405280929190818152602001828054600181600116156101000203166002900480156104275780601f106103fc57610100808354040283529160200191610427565b820191906000526020600020905b81548152906001019060200180831161040a57829003601f168201915b505050505081565b6002602052806000526040600020600091509050806000015490806001018054600181600116156101000203166002900480601f0160208091040260200160405190810160405280929190818152602001828054600181600116156101000203166002900480156104e15780601f106104b6576101008083540402835291602001916104e1565b820191906000526020600020905b8154815290600101906020018083116104c457829003601f168201915b505050505090806002018054600181600116156101000203166002900480601f01602080910402602001604051908101604052809291908181526020018280546001816001161561010002031660029004801561057f5780601f106105545761010080835404028352916020019161057f565b820191906000526020600020905b81548152906001019060200180831161056257829003601f168201915b5050505050908060030160009054906101000a900473ffffffffffffffffffffffffffffffffffffffff16905084565b60015481565b60008251116105c357600080fd5b60008151116105d157600080fd5b600073ffffffffffffffffffffffffffffffffffffffff163373ffffffffffffffffffffffffffffffffffffffff16141561060b57600080fd5b600160008154809291906001019190505550604051806080016040528060015481526020018381526020018281526020013373ffffffffffffffffffffffffffffffffffffffff16815250600260006001548152602001908152602001600020600082015181600001556020820151816001019080519060200190610691929190610844565b5060408201518160020190805190602001906106ae929190610844565b5060608201518160030160006101000a81548173ffffffffffffffffffffffffffffffffffffffff021916908373ffffffffffffffffffffffffffffffffffffffff1602179055509050507fa39533b4723a5c935d306611285b3c00e8c7a20fc6666ba6bb620c305abe070f6001548383336040518085815260200180602001806020018473ffffffffffffffffffffffffffffffffffffffff1673ffffffffffffffffffffffffffffffffffffffff168152602001838103835286818151815260200191508051906020019080838360005b8381101561079c578082015181840152602081019050610781565b50505050905090810190601f1680156107c95780820380516001836020036101000a031916815260200191505b50838103825285818151815260200191508051906020019080838360005b838110156108025780820151818401526020810190506107e7565b50505050905090810190601f16801561082f5780820380516001836020036101000a031916815260200191505b50965050505050505060405180910390a15050565b828054600181600116156101000203166002900490600052602060002090601f016020900481019282601f1061088557805160ff19168380011785556108b3565b828001600101855582156108b3579182015b828111156108b2578251825591602001919060010190610897565b5b5090506108c091906108c4565b5090565b6108e691905b808211156108e25760008160009055506001016108ca565b5090565b9056fea265627a7a723158206b6c41d193e3203769cb8c2e74c53490449dfcd7d5af6908cc753a3e85ee1f4964736f6c63430005100032",
  "source": "pragma solidity >=0.4.22 <0.8.0;\n\ncontract DistributedMusic {\n  string public name = \"DistributedMusic\";\n  uint public trackCount;\n  mapping(uint => Track) public tracks;\n\n\n  struct Track {\n    uint id;\n    string hash;        // IPFS hash\n    string title;\n    address author;      // address of poster\n  }\n\n\n  event TrackUploaded(\n    uint id,\n    string hash,\n    string title,\n    address author\n  );\n\n\n  constructor() public { \n\n  }\n\n\n  /* \n  upload a track to the blockchain\n  @param {String} trackHash - the IPFS hash\n  @param {String} title\n  */\n  function uploadTrack(string memory trackHash, string memory title) public {\n    // verify that the parameters were passed in\n    require(bytes(trackHash).length > 0);\n    require(bytes(title).length > 0);\n\n    // verify that sender address exists\n    require(msg.sender != address(0));\n\n    // increment track count for ID purposes\n    trackCount++;\n\n    // add track to the contract\n    tracks[trackCount] = Track(trackCount, trackHash, title, msg.sender);\n\n    // emit an event\n    emit TrackUploaded(trackCount, trackHash, title, msg.sender);\n  }\n}",
  "sourcePath": "/Users/devonconger/Documents/Projects/Personal/distributed_music/contracts/DistributedMusic.sol",
  "compiler": {
    "name": "solc",
    "version": "0.5.16+commit.9c3226ce.Emscripten.clang"
  },
  "schemaVersion": "3.3.2",
  "updatedAt": "2020-11-15T23:27:04.034Z",
  "networkType": "ethereum",
  "devdoc": {
    "methods": {}
  },
  "userdoc": {
    "methods": {}
  }
}